:020000040800F2
:100000008806002089010008D30D0008E50A0008D1
:10001000D10D00088F020008330E00080000000018
:10002000000000000000000000000000D70D0008E4
:100030009102000800000000D50D0008D90D00084D
:10004000A3010008A3010008A3010008A301000800
:10005000A3010008A3010008A3010008A3010008F0
:10006000A3010008A3010008A3010008A3010008E0
:10007000A3010008A3010008A3010008A3010008D0
:10008000A3010008A3010008A3010008A3010008C0
:10009000A3010008A3010008A3010008A3010008B0
:1000A000A3010008A3010008A3010008A3010008A0
:1000B000A3010008A3010008A3010008A301000890
:1000C000A3010008A3010008A3010008A301000880
:1000D000A3010008A3010008A3010008A301000870
:1000E000A3010008A3010008A301000800F002F822
:1000F00000F03AF80AA090E8000C82448344AAF188
:100100000107DA4501D100F02FF8AFF2090EBAE885
:100110000F0013F0010F18BFFB1A43F0010318473B
:100120001810000038100000103A24BF78C878C1B9
:10013000FAD8520724BF30C830C144BF04680C60ED
:10014000704700000023002400250026103A28BF35
:1001500078C1FBD8520728BF30C148BF0B60704739
:100160001FB51FBD10B510BD00F05CF81146FFF7BC
:10017000F7FF00F06FFE00F07AF803B4FFF7F2FF2C
:1001800003BC00F07DF8000009488047094800479B
:10019000FEE7FEE7FEE7FEE7FEE7FEE7FEE7FEE737
:1001A000FEE7FEE704480549054A064B7047000094
:1001B000310E0008ED0000088800002088060020AD
:1001C00088020020880200204FF0000200B513468C
:1001D00094469646203922BFA0E80C50A0E80C5067
:1001E000B1F12001BFF4F7AF090728BFA0E80C5018
:1001F00048BF0CC05DF804EB890028BF40F8042B11
:1002000008BF704748BF20F8022B11F0804F18BF7D
:1002100000F8012B704770477047704700487047DF
:10022000280000207546FFF7F9FFAE460500694635
:10023000534620F00700854618B020B5FFF7B2FFFF
:10024000BDE820404FF000064FF000074FF00008D7
:100250004FF0000B21F00701AC46ACE8C009ACE858
:10026000C009ACE8C009ACE8C0098D46704710B5BC
:100270000446AFF300802046BDE81040FFF77DBF85
:1002800001491820ABBEFEE7260002007047FEE7DA
:100290007047000070B5044600F004F90546601C84
:1002A00002D004480078044400F0FCF8401BA0424F
:1002B000FAD370BD000000202DE9F84FDFF8B891A7
:1002C0000024A9F1040B23460F2709F1040AABF11E
:1002D000040EC9E00125A5402A40AA427DD1674EFF
:1002E000D1F804C0ACEB0608B44532D014DCBCF144
:1002F000030F3AD009DCBCF1000F2AD0BCF1010F8A
:100300001CD0BCF1020F31D11DE0BCF1110F17D090
:10031000BCF1120F2AD119E0B8F5881F19D006DCFC
:10032000B8F5803F15D0B8F5801F1FD111E0B8F5A2
:10033000001F0ED0B8F5041F18D10AE0CB6815E0F5
:10034000CB681B1D12E0CB6808330FE0CB680C3381
:100350000CE08B682BB1012B4FF0080303D04561F3
:1003600004E0042302E0056100E00023FF2A01D835
:10037000064601E000F104064FEA840501D9A5F123
:100380002005D6F8008007FA05FC28EA0C0803FAD5
:1003900005F548EA0508C6F800804D68ED0062D50D
:1003A000374DAE6946F00106AE61AD6924F0030633
:1003B00005F001050095334D06EB050CDCF80850FF
:1003C000A607360F07FA06F825EA0805DFF8B88011
:1003D000404503D14FF0000817E044E0DFF8AC805F
:1003E000404502D14FF001080FE0DFF8A4804045FE
:1003F00002D14FF0020808E0DFF89880404502D1B2
:100400004FF0030801E04FF0040808FA06F848EA44
:100410000508CCF808804D68D9F80060ED024D461B
:1004200001D5164300E096432E604D68DAF800606F
:10043000AD02554601D5164300E096432E604D6847
:10044000DBF80060AD035D4601D5164300E096433E
:100450002E604D68DEF80060ED03754601D5164349
:1004600000E096432E60641C0D682A46E5407FF448
:1004700031AFBDE8F88F0000080401400000111002
:10048000001002400000014000080140000C014043
:1004900000100140001401400AB1016170470904D5
:1004A000FBE7000001488068704700000000002062
:1004B0000248816802781144816070470000002082
:1004C000074810B5016841F010010160032000F0F9
:1004D00067F80F2000F006F800F024F8002010BDA7
:1004E0000020024070B50D4D04464FF47A71287813
:1004F000B1FBF0F00A490968B1FBF0F000F0DEFA58
:1005000048B9102C07D200222146501E00F028F8CE
:1005100000206C6070BD012070BD00000000002054
:100520000C0000200C4808B5816941F0010181618F
:10053000816901F001010091C16941F08051C161FF
:10054000C06900F0805000900448416821F0E061EB
:1005500041F00071416008BD001002400000014000
:10056000F0B40E4B1B680C46C3F30223C3F107051E
:10057000042D00D90425191D072901D2002300E00C
:10058000DB1E012606FA05F1491E214099409E40D6
:10059000761E16403143F0BC00F04CBC0CED00E080
:1005A000064900F0070208684FF6FF03184040EACA
:1005B0000220034A10430860704700000CED00E081
:1005C0000000FA052DE9F0470F46050061D0434EC3
:1005D000306800F00700B84209D2306820F0070008
:1005E00038433060306800F00700B84251D12868C5
:1005F0003B4C810712D5400703D5606840F4E060AA
:1006000060602878000703D5606840F4605060603F
:100610006068A96820F0F000084360602878C0078F
:1006200028D06868012810D02168022810D08907D6
:1006300000292EDA616821F0030101436160FFF7B0
:1006400031FF804641F288390DE021688903EFE7E8
:100650008901EDE7FFF726FFA0EB0801494502D924
:100660000320BDE8F0876068696800F00C00B0EB1B
:10067000810FEFD1306800F00700B8420BD9306825
:1006800020F0070038433060306800F00700B842BF
:1006900001D00120E5E72878400705D56068E968C2
:1006A00020F4E060084360602878000706D56068A1
:1006B000296920F4605040EAC100606000F048F809
:1006C0006168084AC1F30311515CC84006490860DB
:1006D00006480068FFF706FF0020C2E7002002403E
:1006E000001002401E1100080C0000200400002031
:1006F0000F2202600C4A536803F0030343605368FF
:1007000003F0F0038360536803F4E063C36052684E
:100710004FF4E06303EAD20202610448006800F08B
:1007200007000860704700000010024000200240EF
:100730000448054900684968044AC1F30221515C34
:10074000C84070470C000020001002402E11000825
:100750000E4A51680E4801F00C03042B11D0082BEF
:100760000FD10C48C1F38343C903C05C0AD551685B
:10077000084AC1F34041921E515C054A5043B0FB08
:10078000F1F07047044948437047000000100240F0
:1007900000127A000E11000800093D002DE9F84F03
:1007A000040070D02078C04DC00749D06868C0F3FD
:1007B0008100012807D06868C0F38100022809D1B0
:1007C0006868C00306D52868800339D560680028AA
:1007D000E7D035E06068B0F5803F0BD010B1B0F5E0
:1007E000A02F11D0286820F480302860286820F4D9
:1007F000802002E0286840F480302860606890B172
:10080000FFF750FE06460AE0286840F48020286082
:10081000F0E700BFFFF746FE801B642873D8286806
:100820008003F7D50CE0FFF73DFE064605E000BF6C
:10083000FFF738FE801B6428F0D828688003F7D4BF
:1008400020789A4E80074FF001094FF0000839D503
:10085000686810F00C0F07D06868C0F381000228A8
:1008600009D16868C00306D42868800714D52069B8
:10087000012808D110E02069B0B1C6F80090FFF758
:1008800011FE074605E00AE1FFF70CFEC01B022837
:10089000C4D828688007F7D52868616920F0F80077
:1008A00040EAC10028600DE0C6F80080FFF7FAFDBD
:1008B000074604E0FFF7F6FDC01B022823D828688E
:1008C0008007F7D4207800072CD57948A169D9B1E1
:1008D000C0F80090FFF7E6FD074604E0FFF7E2FDF1
:1008E000C01B02280FD8686A8007F7D571484FF4FB
:1008F000FA510068B0FBF1F0009000BF0098411E73
:100900000091FAD20EE080E0C0F80080FFF7CAFD47
:10091000074604E0FFF7C6FDC01B022875D8686AC9
:100920008007F7D42078400760D5E8690027C00029
:1009300008D4E86940F08050E861E869012700F0D8
:10094000805000905C480168C90513D40168834653
:1009500041F480710160FFF7A5FD824606E000BF0B
:10096000FFF7A0FDA0EB0A0064284ED8DBF80000DA
:10097000C005F5D5E06801280AD008B1052813D0D4
:10098000286A20F001002862286A20F0040002E0B2
:10099000286A40F001002862E06841F2883B98B183
:1009A000FFF780FD82460BE0286A40F004002862D1
:1009B000EEE700BFFFF776FDA0EB0A0159455AD8D4
:1009C000286A8007F6D50CE0FFF76CFD824605E04B
:1009D000FFF768FDA0EB0A0159454CD8286A80074B
:1009E000F6D41FB1E86920F08050E861E06988B36F
:1009F0006968C1F38101022944D00228C6F86080E9
:100A000004D0FFF74FFD044638E034E0FFF74AFD1D
:100A1000074604E0FFF746FDC01B02282BD82868D4
:100A20008001F7D4206AB0F5803F05D16868A168DD
:100A300020F4003008436860D4E90801084369687D
:100A400021F4741108436860C6F86090FFF72AFD2E
:100A5000044606E025E000BFFFF724FD001B022846
:100A600009D828688001F7D51BE000BFFFF71AFD01
:100A7000001B022802D90320BDE8F88F28688001F6
:100A8000F4D40EE00128F7D06868226A00F48031BF
:100A9000914204D1616A00F47010884201D00120B3
:100AA000EAE70020E8E700000010024000004242B0
:100AB000800442420C0000200070004010B5401E2F
:100AC000B0F1807F01D3012010BD4FF0E0246061C0
:100AD0000F21601700F0AEF90020A061072020610F
:100AE000002010BDFEE700002DE9F04106AC94E8BF
:100AF000E0101D4C20616180A2806361E580268149
:100B00006781A4F80CC000F051F828206070142010
:100B1000FFF7C0FB032000F0F5F80520FFF7BAFB54
:100B2000032000F0EFF80120FFF7B4FB032000F0F2
:100B3000E9F80120FFF7AEFB022000F0E3F8012006
:100B4000FFF7A8FB0F2000F001F9012000F0FEF8EC
:100B50000320FFF79FFB282000F0F8F8BDE8F041E4
:100B60000320FFF797BB00001000002010B5094CD0
:100B70000122A1882069FFF78FFC0A2000F05EF8AF
:100B80000022A1882069FFF787FCBDE810403C20C7
:100B900000F054B8100000200200034841880069AA
:100BA00000D00122FFF778BC1000002000B587B00C
:100BB00005A96846FFF79CFD039898B3FFF7B8FDB9
:100BC0005FEA400000F091F9184A194B00F0A0F9D3
:100BD00000F05EF91749CA6942F00202CA6116497B
:100BE0000A6822F010020A600A6822F001020A6014
:100BF0000A6822F004020A600A6842F008020A60E9
:100C00000D492831401E08600920091D08600A4965
:100C1000012014310860081F016821F00101016002
:100C200007B000BDFFE7FFF783FDCBE78DEDB5A073
:100C3000F7C6B03E00100240000400400949401EC3
:100C4000086008481C38016821F00101016005496D
:100C50002C390A6842F001020A600168C907FCD019
:100C6000704700002C04004070B50646002409E0DF
:100C70000120FFF791FF284600F008F8641CE4B259
:100C8000102C02D2355D002DF2D170BD70B51C4C18
:100C90000609054606F00102E1886069FFF7FCFBE2
:100CA00006F0020221896069FFF7F6FB06F00402F4
:100CB00061896069FFF7F0FB06F00802A1896069AD
:100CC000FFF7EAFBFFF752FF05F00102E1886069D8
:100CD000FFF7E2FB05F0020221896069FFF7DCFB08
:100CE00005F0040261896069FFF7D6FB05F0080290
:100CF000A1896069FFF7D0FBBDE87040FFF736BF00
:100D00001000002070B505460020FFF745FF0E4C8F
:100D100005F00102E1886069FFF7BEFB05F0020201
:100D200021896069FFF7B8FB05F0040261896069F9
:100D3000FFF7B2FB05F00802A1896069FFF7ACFB81
:100D4000BDE87040FFF712BF1000002010B5044648
:100D50000020FFF721FF2046BDE81040FFF796BFB7
:100D600070B586B00024184800940194029403944E
:100D7000816941F020018161816901F020010491C4
:100D8000816941F008018161816901F008010491E4
:100D9000816941F00401816180690C4E00F004001A
:100DA00040F283750490002229463046FFF774FB19
:100DB00001200095CDE901040220039069463046E8
:100DC000FFF77AFA06B070BD00100240000C014037
:100DD000FEE7FEE770477047FFF76ABB30B58FB09C
:100DE00028216846FFF7F0F914210AA8FFF7ECF96B
:100DF0000120022504900095102005900024CDE9E3
:100E0000075468460994FFF7C9FC08B172B6FEE7BB
:100E10000F200A90CDE90B540D9400210AA80E94DE
:100E2000FFF7D0FB002801D072B6FEE70FB030BD4F
:100E30007047FEE70907090E002804DB00F1E020F7
:100E400080F80014704700F00F0000F1E02080F8F7
:100E5000141D70471FB5FFF733FBFFF7BFFFFFF708
:100E60007FFF4FF480635A10511080208DE80F00EF
:100E70000448022203460121FFF736FE02A0FFF7D5
:100E8000F3FEFEE7000C014048656C6C6F2100002A
:100E90004FEA1153A3F58063D3F11E03A8BFD3F12A
:100EA000200C08DB4FF0004242EAC12252EA5052C5
:100EB00032FA03F0704709420BD4102BC4BF002054
:100EC000704703F5787CBCF1FF3F05D04FF0FF3051
:100ED00070474FF00000704770B500F0C3F800BFD6
:100EE0004992248000207047F0E7B0FA80F310FAAE
:100EF00003F10AD0C3F11D0303F580634FEA4150AB
:100F00004FEA035202EBD12170474FF000007047C7
:100F1000DFF848C170B51CEA111E1EBF1CEA13158C
:100F20009EEA0C0F95EA0C0F00F06F8081EA030433
:100F300023EA4C134EEAD47E21EA4C1141F480118D
:100F400043F48013AE44A1FB024CA0FB0365AEF159
:100F50007F7E361955EB0C05A1FB034C4CF10003C9
:100F6000A0FB021C16EB0C06654153F1000309427D
:100F700018BF46F0010613F4007F0BD14FEA03318E
:100F80004FEA0530340341EA155140EA16506FF03C
:100F900003020AE04FEAC3214FEAC520F40241EA06
:100FA000555140EA56506FF0020202EB2E4201EB1F
:100FB000025585EACE710AD05FEA440C18BF24F0CE
:100FC000004450F1000041F1000120EAD47040F2E9
:100FD000FE7C624500D270BDA84214BF4FF0804431
:100FE0004FF04044002E08BF0024BEF1806FA8BF20
:100FF000A1F1C041BDE8704080F282804FF0000056
:1010000001F1C04101F0004170479EEA0C0F0CEA6B
:10101000131518BF95EA0C0F06D04FF0000081EAB7
:10102000030E0EF0004170BD00F01CF88900013E77
:1010300000F007B800F009B84FEA430C5FEA5C5CC7
:1010400008D081EA030100F05BB84FEA410C5FEA87
:101050005C5CF6D14FF00000014970470000FF07CB
:101060000000F87F0EF1020E2EF0030E5EF8046B06
:10107000364205D4012A43EB030515F5001F12D8AB
:10108000012841EB010C1CF5001F0CD80ED14FEAD2
:10109000D17C15F5001F0CEB4C0C0CF1020C08BFB9
:1010A0004CEBD37C04E04FF0080C01E04FEAD37C1A
:1010B0000CEB4C0526FA05F606F00706B6F1040C13
:1010C00006D20EEB860CBDE870404CF0010C604778
:1010D000DFE80CF0090B02024FF000414FF0000076
:1010E000A1F5002170BD19461046012851EB0104FD
:1010F00018BFD4F5001484BF002001F0004170BD7A
:101100000808A0F500114FEA3101704701020203FF
:101110000405060708090A0B0C0D0E0F101000003D
:101120000000000000000102030406070809000097
:101130000000010203040000581100080000002014
:101140002800000028010008801100082800002065
:1011500060060000440100080100000010000000CB
:101160000000000000127A000F38000000000000AC
:10117000000000000000000000000000000000006F
:04000005080000ED02
:00000001FF
