:020000040800F2
:10000000D006002089010008A71000086F0D000825
:10001000A51000088F020008F5110008000000007C
:10002000000000000000000000000000991100081E
:100030009102000800000000A91000089B110008B0
:10004000A3010008A3010008A3010008A301000800
:10005000A3010008A3010008A3010008A3010008F0
:10006000A3010008A3010008A3010008A3010008E0
:10007000A3010008A3010008A3010008A3010008D0
:10008000A3010008A3010008A3010008A3010008C0
:10009000A3010008A3010008A3010008A3010008B0
:1000A000A3010008A3010008A3010008A3010008A0
:1000B000A3010008A3010008A3010008A301000890
:1000C000A3010008A3010008A3010008A301000880
:1000D000A3010008A3010008A3010008A301000870
:1000E000A3010008A3010008A301000800F002F822
:1000F00000F03AF80AA090E8000C82448344AAF188
:100100000107DA4501D100F02FF8AFF2090EBAE885
:100110000F0013F0010F18BFFB1A43F0010318473B
:10012000CC130000EC130000103A24BF78C878C14B
:10013000FAD8520724BF30C830C144BF04680C60ED
:10014000704700000023002400250026103A28BF35
:1001500078C1FBD8520728BF30C148BF0B60704739
:100160001FB51FBD10B510BD00F05CF81146FFF7BC
:10017000F7FF01F051F800F07AF803B4FFF7F2FF4F
:1001800003BC00F07DF8000009488047094800479B
:10019000FEE7FEE7FEE7FEE7FEE7FEE7FEE7FEE737
:1001A000FEE7FEE704480549054A064B7047000094
:1001B000F3110008ED000008D0000020D006002058
:1001C000D0020020D00200204FF0000200B51346FC
:1001D00094469646203922BFA0E80C50A0E80C5067
:1001E000B1F12001BFF4F7AF090728BFA0E80C5018
:1001F00048BF0CC05DF804EB890028BF40F8042B11
:1002000008BF704748BF20F8022B11F0804F18BF7D
:1002100000F8012B704770477047704700487047DF
:100220006C0000207546FFF7F9FFAE4605006946F1
:10023000534620F00700854618B020B5FFF7B2FFFF
:10024000BDE820404FF000064FF000074FF00008D7
:100250004FF0000B21F00701AC46ACE8C009ACE858
:10026000C009ACE8C009ACE8C0098D46704710B5BC
:100270000446AFF300802046BDE81040FFF77DBF85
:1002800001491820ABBEFEE7260002007047FEE7DA
:100290007047000070B5044600F004F90546601C84
:1002A00002D004480078044400F0FCF8401BA0424F
:1002B000FAD370BD000000202DE9F84FDFF8B891A7
:1002C0000024A9F1040B23460F2709F1040AABF11E
:1002D000040EC9E00125A5402A40AA427DD1674EFF
:1002E000D1F804C0ACEB0608B44532D014DCBCF144
:1002F000030F3AD009DCBCF1000F2AD0BCF1010F8A
:100300001CD0BCF1020F31D11DE0BCF1110F17D090
:10031000BCF1120F2AD119E0B8F5881F19D006DCFC
:10032000B8F5803F15D0B8F5801F1FD111E0B8F5A2
:10033000001F0ED0B8F5041F18D10AE0CB6815E0F5
:10034000CB681B1D12E0CB6808330FE0CB680C3381
:100350000CE08B682BB1012B4FF0080303D04561F3
:1003600004E0042302E0056100E00023FF2A01D835
:10037000064601E000F104064FEA840501D9A5F123
:100380002005D6F8008007FA05FC28EA0C0803FAD5
:1003900005F548EA0508C6F800804D68ED0062D50D
:1003A000374DAE6946F00106AE61AD6924F0030633
:1003B00005F001050095334D06EB050CDCF80850FF
:1003C000A607360F07FA06F825EA0805DFF8B88011
:1003D000404503D14FF0000817E044E0DFF8AC805F
:1003E000404502D14FF001080FE0DFF8A4804045FE
:1003F00002D14FF0020808E0DFF89880404502D1B2
:100400004FF0030801E04FF0040808FA06F848EA44
:100410000508CCF808804D68D9F80060ED024D461B
:1004200001D5164300E096432E604D68DAF800606F
:10043000AD02554601D5164300E096432E604D6847
:10044000DBF80060AD035D4601D5164300E096433E
:100450002E604D68DEF80060ED03754601D5164349
:1004600000E096432E60641C0D682A46E5407FF448
:1004700031AFBDE8F88F0000080401400000111002
:10048000001002400000014000080140000C014043
:1004900000100140001401400AB1016170470904D5
:1004A000FBE7000001488068704700000000002062
:1004B0000248816802781144816070470000002082
:1004C000074810B5016841F010010160032000F0F9
:1004D00067F80F2000F006F800F024F8002010BDA7
:1004E0000020024070B50D4D04464FF47A71287813
:1004F000B1FBF0F00A490968B1FBF0F000F023FC11
:1005000048B9102C07D200222146501E00F028F8CE
:1005100000206C6070BD012070BD00000000002054
:100520000C0000200C4808B5816941F0010181618F
:10053000816901F001010091C16941F08051C161FF
:10054000C06900F0805000900448416821F0E061EB
:1005500041F00071416008BD001002400000014000
:10056000F0B40E4B1B680C46C3F30223C3F107051E
:10057000042D00D90425191D072901D2002300E00C
:10058000DB1E012606FA05F1491E214099409E40D6
:10059000761E16403143F0BC00F02DBE0CED00E09D
:1005A000064900F0070208684FF6FF03184040EACA
:1005B0000220034A10430860704700000CED00E081
:1005C0000000FA052DE9F0470F46050061D0434EC3
:1005D000306800F00700B84209D2306820F0070008
:1005E00038433060306800F00700B84251D12868C5
:1005F0003B4C810712D5400703D5606840F4E060AA
:1006000060602878000703D5606840F4605060603F
:100610006068A96820F0F000084360602878C0078F
:1006200028D06868012810D02168022810D08907D6
:1006300000292EDA616821F0030101436160FFF7B0
:1006400031FF804641F288390DE021688903EFE7E8
:100650008901EDE7FFF726FFA0EB0801494502D924
:100660000320BDE8F0876068696800F00C00B0EB1B
:10067000810FEFD1306800F00700B8420BD9306825
:1006800020F0070038433060306800F00700B842BF
:1006900001D00120E5E72878400705D56068E968C2
:1006A00020F4E060084360602878000706D56068A1
:1006B000296920F4605040EAC100606000F048F809
:1006C0006168084AC1F30311515CC84006490860DB
:1006D00006480068FFF706FF0020C2E7002002403E
:1006E00000100240D21400080C000020040000207A
:1006F0000F2202600C4A536803F0030343605368FF
:1007000003F0F0038360536803F4E063C36052684E
:100710004FF4E06303EAD20202610448006800F08B
:1007200007000860704700000010024000200240EF
:100730000448054900684968044AC1F30221515C34
:10074000C84070470C00002000100240E21400086E
:100750000E4A51680E4801F00C03042B11D0082BEF
:100760000FD10C48C1F38343C903C05C0AD551685B
:10077000084AC1F34041921E515C054A5043B0FB08
:10078000F1F07047044948437047000000100240F0
:1007900000127A00C214000800093D002DE9F84F4C
:1007A000040070D02078C04DC00749D06868C0F3FD
:1007B0008100012807D06868C0F38100022809D1B0
:1007C0006868C00306D52868800339D560680028AA
:1007D000E7D035E06068B0F5803F0BD010B1B0F5E0
:1007E000A02F11D0286820F480302860286820F4D9
:1007F000802002E0286840F480302860606890B172
:10080000FFF750FE06460AE0286840F48020286082
:10081000F0E700BFFFF746FE801B642873D8286806
:100820008003F7D50CE0FFF73DFE064605E000BF6C
:10083000FFF738FE801B6428F0D828688003F7D4BF
:1008400020789A4E80074FF001094FF0000839D503
:10085000686810F00C0F07D06868C0F381000228A8
:1008600009D16868C00306D42868800714D52069B8
:10087000012808D110E02069B0B1C6F80090FFF758
:1008800011FE074605E00AE1FFF70CFEC01B022837
:10089000C4D828688007F7D52868616920F0F80077
:1008A00040EAC10028600DE0C6F80080FFF7FAFDBD
:1008B000074604E0FFF7F6FDC01B022823D828688E
:1008C0008007F7D4207800072CD57948A169D9B1E1
:1008D000C0F80090FFF7E6FD074604E0FFF7E2FDF1
:1008E000C01B02280FD8686A8007F7D571484FF4FB
:1008F000FA510068B0FBF1F0009000BF0098411E73
:100900000091FAD20EE080E0C0F80080FFF7CAFD47
:10091000074604E0FFF7C6FDC01B022875D8686AC9
:100920008007F7D42078400760D5E8690027C00029
:1009300008D4E86940F08050E861E869012700F0D8
:10094000805000905C480168C90513D40168834653
:1009500041F480710160FFF7A5FD824606E000BF0B
:10096000FFF7A0FDA0EB0A0064284ED8DBF80000DA
:10097000C005F5D5E06801280AD008B1052813D0D4
:10098000286A20F001002862286A20F0040002E0B2
:10099000286A40F001002862E06841F2883B98B183
:1009A000FFF780FD82460BE0286A40F004002862D1
:1009B000EEE700BFFFF776FDA0EB0A0159455AD8D4
:1009C000286A8007F6D50CE0FFF76CFD824605E04B
:1009D000FFF768FDA0EB0A0159454CD8286A80074B
:1009E000F6D41FB1E86920F08050E861E06988B36F
:1009F0006968C1F38101022944D00228C6F86080E9
:100A000004D0FFF74FFD044638E034E0FFF74AFD1D
:100A1000074604E0FFF746FDC01B02282BD82868D4
:100A20008001F7D4206AB0F5803F05D16868A168DD
:100A300020F4003008436860D4E90801084369687D
:100A400021F4741108436860C6F86090FFF72AFD2E
:100A5000044606E025E000BFFFF724FD001B022846
:100A600009D828688001F7D51BE000BFFFF71AFD01
:100A7000001B022802D90320BDE8F88F28688001F6
:100A8000F4D40EE00128F7D06868226A00F48031BF
:100A9000914204D1616A00F47010884201D00120B3
:100AA000EAE70020E8E700000010024000004242B0
:100AB000800442420C0000200070004070B5040029
:100AC00009D0606A002540B125616561A56294F88E
:100AD000510040B10CE0012070BD6068B0F5827F2C
:100AE000F4D0E561F2E784F85050204600F040F879
:100AF000022084F851002068016821F04001016063
:100B0000A088218900F4827001F404410843A1897E
:100B100001F400610843217C01F002010843217DBA
:100B200001F001010843218B01F400710843217F8A
:100B300001F03801084394F8201001F080010843C7
:100B4000218D01F40051084321680860A069042147
:100B500001EA1040216848602068C16921F4006101
:100B6000C1616565012084F85100002070BD00005E
:100B700030B585B000240094019402940394006879
:100B80001449884223D11448816941F4805181611C
:100B9000816901F480510491816941F0040181610E
:100BA00080690E4D00F004000490A0200090022007
:100BB00001900320039069462846FFF77DFB402003
:100BC000CDE90004694628460294FFF775FB05B09D
:100BD00030BD00000030014000100240000801401C
:100BE0002DE9F84F984616468A460446FFF75AFC08
:100BF000814694F8510001281ED1BAF1000F73D03C
:100C0000002E71D094F85000012815D0012784F8E7
:100C10005070032084F8510000256565C4F830A0A9
:100C2000A686E686A563A587E58765642564A06832
:100C3000B0F5004F03D00CE00220BDE8F88F20682B
:100C4000016821F0400101602068016841F48041A1
:100C5000016020680168490603D4016841F0400141
:100C60000160E068B0F5006F606803D048B3012E02
:100C700027D047E008B1012E1FD1206B21680088E2
:100C8000C86006E020688168890709D5216B09885A
:100C9000C160206B801C2063E08E401EE0860CE06B
:100CA000FFF700FCA0EB0901414503D3B8F1FF3F7A
:100CB00003D035E0B8F1000F32D0E08E0028E1D14A
:100CC00023E0206B21680078087306E020688168C3
:100CD00089070AD5216B09780173206B401C2063BA
:100CE000E08E401EE0860DE02BE0FFF7DBFBA0EB83
:100CF0000901414503D3B8F1FF3F03D010E0B8F13B
:100D0000000F0DD0E08E0028E0D14A464146204633
:100D100000F0CBF908B120206065A06830B109E08F
:100D200084F8517084F85050032086E72068C16829
:100D30008068009084F8517004F8505F6068002863
:100D4000F3D0012079E710B5401EB0F1807F01D3C8
:100D5000012010BD4FF0E02460610F21601700F00A
:100D60004AFA0020A06107202061002010BDFEE7A4
:100D700010B5064C012211462046FFF78DFB204698
:100D80000022BDE810400121FFF786BB000C0140A6
:100D900010B500F071F81749282048701420FFF7AB
:100DA00079FA032000F002F90520FFF773FA032017
:100DB00000F0FCF80120FFF76DFA032000F0F6F8D0
:100DC0000120FFF767FA022000F0F0F80120FFF79A
:100DD00061FA0F2000F006F9012000F003F903206A
:100DE000FFF758FA282000F0FDF8BDE81040032076
:100DF000FFF750BA1000002010B5104C0A23012252
:100E0000A078A11C40F02000A0700D48FFF7E8FE7C
:100E1000FFF7AEFF0A2000F077F8A0780A2320F051
:100E20002000A0700122A11C0548FFF7D9FEFFF7A2
:100E30009FFFBDE810403C2000F066B81000002085
:100E4000140000200A4910B58A7810B102F0100091
:100E500001E022F01000887005490A230122891C54
:100E60000448FFF7BDFEBDE81040FFF781BF00005A
:100E7000100000201400002000B587B005A96846C6
:100E8000FFF736FC039898B3FFF752FC5FEA400087
:100E900000F005FA184A194B00F014FA00F0D2F9E4
:100EA0001749CA6942F00202CA6116490A6822F06B
:100EB00010020A600A6822F001020A600A6822F041
:100EC00004020A600A6842F008020A600D492831EB
:100ED000401E08600920091D08600A4901201431DC
:100EE0000860081F016821F00101016007B000BD22
:100EF000FFE7FFF71DFCCBE78DEDB5A0F7C6B03ED1
:100F000000100240000400400949401E08600848E3
:100F10001C38016821F00101016005492C390A687B
:100F200042F001020A600168C907FCD07047000066
:100F30002C04004070B50646002409E00120FFF7AC
:100F400081FF284600F008F8641CE4B2102C02D29D
:100F5000355D002DF2D170BD70B5124C00F00F055B
:100F60000A23A178012201F0F00141EA1011A170D9
:100F7000A11C0D48FFF734FEFFF7FAFEFFF73CFF18
:100F8000A0780A2300F0F0002843A0700122A11CE1
:100F90000548FFF725FEFFF7EBFEBDE87040FFF7C1
:100FA0002BBF0000100000201400002010B500F03E
:100FB0000F040020FFF746FF08480A23012281782A
:100FC00001F0F00121438170811C0548FFF708FE04
:100FD000FFF7CEFEBDE81040FFF70EBF1000002067
:100FE0001400002010B504460020FFF72BFF204618
:100FF000BDE81040FFF7B0BF30B585B000241748FA
:101000000094019402940394816941F0200181616C
:10101000816901F020010491816941F0040181613D
:10102000816901F004010491816941F00801816145
:1010300080690B4D00F00800049000220121284631
:10104000FFF72AFA0220012103900091CDE9011453
:1010500069462846FFF730F905B030BD0010024060
:10106000000C01400E4810B50C4901604FF482712C
:10107000416000218160C1604FF400720161C0E9EC
:101080000512C1610162416281620A21C162FFF7FA
:1010900015FD002801D072B6FEE710BD00300140FA
:1010A00014000020FEE7FEE77047F8B515460E462F
:1010B0000B46009204460122022100F011F840B9CB
:1010C0003346002280212046009500F009F80028D0
:1010D00004D0606D40F0200060650320F8BD000082
:1010E0002DE9F8431E46914688460446089DFFF7C1
:1010F000D9F9401B351AFFF7D5F90746254800688E
:10110000C0F3CB30684338E0701C37D0FFF7CAF922
:10111000C01BA84203D215B1009860B32CE0206830
:10112000416821F0E00141606068B0F5827F0BD139
:10113000A068B0F5004F02D0B0F5806F04D12068F0
:10114000016821F040010160A06AB0F5005F09D19B
:101150002068016821F4005101602068016841F4B1
:1011600000510160012084F85100002084F85000F3
:101170000320BDE8F8830025401E009020688168A8
:1011800038EA010004D000214945BDD10020F0E734
:101190000121F9E70C0000207047FFF789B930B54D
:1011A0008FB028216846FFF70FF814210AA8FFF72F
:1011B0000BF80120022504900095102005900024D2
:1011C000CDE9075468460994FFF7E8FA08B172B60A
:1011D000FEE70F200A90CDE90B540D9400210AA8D8
:1011E0000E94FFF7EFF9002801D072B6FEE70FB0BA
:1011F00030BD7047FEE70907090E002804DB00F147
:10120000E02080F80014704700F00F0000F1E020AB
:1012100080F8141D70470000FFF752F9FFF7BFFF79
:10122000FFF7EAFEFFF71EFFFFF7B2FD01A0FFF791
:1012300081FEFEE748656C6C6F20616761696E2115
:10124000000000004FEA1153A3F58063D3F11E03A1
:10125000A8BFD3F1200C08DB4FF0004242EAC122C4
:1012600052EA505232FA03F0704709420BD4102B65
:10127000C4BF0020704703F5787CBCF1FF3F05D068
:101280004FF0FF3070474FF00000704770B500F02E
:10129000C3F800BF4992248000207047F0E7B0FAFD
:1012A00080F310FA03F10AD0C3F11D0303F5806344
:1012B0004FEA41504FEA035202EBD12170474FF001
:1012C00000007047DFF848C170B51CEA111E1EBF50
:1012D0001CEA13159EEA0C0F95EA0C0F00F06F80C4
:1012E00081EA030423EA4C134EEAD47E21EA4C112E
:1012F00041F4801143F48013AE44A1FB024CA0FBE7
:101300000365AEF17F7E361955EB0C05A1FB034C4E
:101310004CF10003A0FB021C16EB0C06654153F1D7
:101320000003094218BF46F0010613F4007F0BD1F9
:101330004FEA03314FEA0530340341EA155140EAE0
:1013400016506FF003020AE04FEAC3214FEAC520AE
:10135000F40241EA555140EA56506FF0020202EBA6
:101360002E4201EB025585EACE710AD05FEA440CA9
:1013700018BF24F0004450F1000041F1000120EAC0
:10138000D47040F2FE7C624500D270BDA84214BF0A
:101390004FF080444FF04044002E08BF0024BEF1BF
:1013A000806FA8BFA1F1C041BDE8704080F282808B
:1013B0004FF0000001F1C04101F0004170479EEA8A
:1013C0000C0F0CEA131518BF95EA0C0F06D04FF05E
:1013D000000081EA030E0EF0004170BD00F01CF821
:1013E0008900013E00F007B800F009B84FEA430C4D
:1013F0005FEA5C5C08D081EA030100F05BB84FEA69
:10140000410C5FEA5C5CF6D14FF000000149704787
:101410000000FF070000F87F0EF1020E2EF0030E11
:101420005EF8046B364205D4012A43EB030515F53B
:10143000001F12D8012841EB010C1CF5001F0CD82D
:101440000ED14FEAD17C15F5001F0CEB4C0C0CF1C2
:10145000020C08BF4CEBD37C04E04FF0080C01E019
:101460004FEAD37C0CEB4C0526FA05F606F007068E
:10147000B6F1040C06D20EEB860CBDE870404CF0C1
:10148000010C6047DFE80CF0090B02024FF000414D
:101490004FF00000A1F5002170BD1946104601284B
:1014A00051EB010418BFD4F5001484BF002001F0F3
:1014B000004170BD0808A0F500114FEA31017047E6
:1014C000010202030405060708090A0B0C0D0E0FA2
:1014D00010100000000000000000010203040607D5
:1014E0000809000000000102030400000C150008B8
:1014F000000000201400000028010008201500084A
:1015000014000020BC060000440100080100000097
:10151000100000000000000000127A000F380000E8
:04000005080000ED02
:00000001FF
